:020000041000EA
:1000000000B5324B212058609868022188439860DF
:10001000D860186158612E4B002199600221596106
:100020000121F02299502B49196001219960352056
:1000300000F044F80222904214D00621196600F024
:1000400034F8196E01211966002018661A6600F04E
:100050002CF8196E196E196E052000F02FF8012189
:100060000842F9D1002199601B49196000215960AB
:100070001A491B48016001219960EB211966A021F2
:10008000196600F012F800219960164914480160C1
:100090000121996001BC002800D000471248134993
:1000A000086003C880F30888084703B5996A0420EC
:1000B0000142FBD001200142F8D103BD02B5186610
:1000C0001866FFF7F2FF186E186E02BD00000240BE
:1000D000000000180000070000035F00212200005C
:1000E000F4000018222000A00001001008ED00E03C
:1000F00000000000000000000000000074B24E7A12
:1001000000200420F7010010C3010010C5010010F9
:10011000C1010010C1010010C1010010C101001097
:10012000C1010010C1010010C1010010C701001081
:10013000C1010010C1010010C9010010CB01001065
:10014000CD010010CD010010CD010010CD01001037
:10015000CD010010CD010010CD010010CD01001027
:10016000CD010010CD010010CD010010CD01001017
:10017000CD010010CD010010CD010010CD01001007
:10018000CD010010CD010010CD010010CD010010F7
:10019000CD010010CD010010CD010010CD010010E7
:1001A000CD010010CD010010CD010010CD010010D7
:1001B000CD010010CD010010CD010010CD010010C7
:1001C00000BE00BE00BE00BE00BE00BE00F04BF888
:1001D000103800BEF2EB8871605300108853001095
:1001E0003402001090A31AE700202149086006C8D5
:1001F00081F3088810471F48006800282FD10DA4FC
:100200000ECC002902D000F012F8F9E71A491B4A77
:10021000002000E001C19142FCD1194988471949E9
:1002200088471949884700BEFDE701C901C29A42C3
:10023000FBD3704788530010C00000202C0300201F
:10024000F45500100000042000000420F4550010B4
:1002500000100420001004200000000070470B482C
:1002600002F00CFF0047EFF30580C0B270470000BA
:1002700008ED00E0000000D0300300209C070020C3
:10028000611600104D0400103D1700105756000075
:1002900006005250ABB360531C520010060052507F
:1002A000861C03022C520010060052505422A29DBC
:1002B0004052001005005250DE65F468F4550010FD
:1002C000F8B5C0460448054B10B5834203D0044B33
:1002D000002B00D0984710BD2C0300202C030020D9
:1002E0000000000006480749091A8B10C90FC918F9
:1002F00010B5491003D0044B002B00D0984710BD17
:100300002C0300202C0300200000000010B5074C37
:100310002378002B09D1FFF7D5FF054B002B02D026
:10032000044800E000BF0123237010BD300400200A
:1003300000000000E8440010054B10B5002B03D06E
:100340000449054800E000BFFFF7CCFF10BDC046E0
:100350000000000034040020E844001010B5002321
:10036000054A934201D80133FAE7044B197804484F
:1003700000F040F910BDC046FE0F000088050020C7
:10038000D404002010B50023054A934201D801335C
:10039000FAE7044B1978044800F02CF910BDC04668
:1003A000FE0F000089050020D404002010B50023B2
:1003B000054A934201D80133FAE7044B19780448FF
:1003C00000F018F910BDC046FE0F00008A0500209D
:1003D000D404002010B50023054A934201D801330C
:1003E000FAE7044B1978044800F004F910BDC04640
:1003F000FE0F00008B050020D404002010B5002360
:10040000054A934201D80133FAE7044B19780448AE
:1004100000F0F0F810BDC0460F2700008C0500204A
:10042000D404002010B50023054A934201D80133BB
:10043000FAE7044B1978044800F0DCF810BDC04618
:10044000FE0F00008D050020D404002010B503F03D
:10045000C5FE174803F0B6FE164C200000F074F8F5
:100460000023154A1549200000F09CF80023144A87
:100470001449200000F096F80023134A1349200085
:1004800000F090F80023124A1249200000F08AF888
:100490000023114A1149200000F084F80023104A7B
:1004A0001049200000F07EF8200000F0EDF8FEE793
:1004B000E8440010D4040020880500205D030010EB
:1004C00089050020850300108A050020AD03001077
:1004D0008B050020D50300108C050020FD030010C3
:1004E0008D050020250400100D4A8223D35C002BCB
:1004F00014D0002301E00133DBB2094981228A5C78
:100500009A420BD91901064A52181279012AF2D1DE
:10051000034A5218916801399160ECE77047C04670
:1005200050040020012800D07047044B9942FBD1B1
:10053000034A81230021D154F6E7C046FFFF0000A3
:10054000500400207047000070B5124C200000F0ED
:10055000CDF81149200000F0D9F8104B002280217D
:100560005A5401315A5401315A5400230BE00B48BC
:100570001C01021900215171022515712150916051
:1005800011730133DBB2072BF1D9054803F03AFFB1
:10059000012070BDDC040020E9040010500400209C
:1005A00091060010F0B5124C8120205C072818D865
:1005B000002918D0022B18D8441CE4B20C4D0001BD
:1005C0002E1874710127377141510021B1603173C8
:1005D00073738123EC5424012C1963791370012067
:1005E00000E00020F0BD0020FCE70020FAE7C04654
:1005F00050040020074A8123D35C0139C9B28B42E1
:1006000005D90901511800230B7301207047002000
:10061000FCE7C04650040020074A8123D35C01391F
:10062000C9B28B4205D90901511801230B71012070
:1006300070470020FCE7C0465004002070B588B029
:1006400003E031000E48FFF7E7FF04AD6C460121DF
:100650002000FFF777FF2B00220013CA13C3126894
:100660001A60049C002CF0D0A04704AD6E793200D3
:100670000821044803F0A6FD2B7B012BF4D0E0E712
:10068000D40400200C45001010B5FFF7D7FF000080
:1006900070B588B003E031000E48FFF7BDFF04AD30
:1006A0006C4602212000FFF74DFF2B00220013CAE9
:1006B00013C312681A60049C002CF0D0A04704AD4C
:1006C0006E7932000921044803F07CFD2B7B012B5D
:1006D000F4D0E0E7D40400200C45001010B5024926
:1006E0000120FFF71FFF10BDFFFF0000044B002299
:1006F0001A600449596007211960034B1A6070475A
:1007000010E000E047E80100D8040020002907D0ED
:10071000054B1B68002B05D0034B19600120704767
:100720000020FCE70020FAE74C04002010B583000D
:10073000084A944663441C6840226240C024144026
:100740008022520113431C60C000034B9C4660444E
:10075000416010BD04C0014000400140EFF3108033
:1007600072B6034B1B68002BFBD0BFF35F8F704743
:100770002C0100D0BFF35F8F024B00221A6080F380
:10078000108870472C0100D0F8B506000C00150049
:10079000FFF7E4FFE308F718F15C0722224001238A
:1007A00093400B4205D1DBB20B433B70FFF7E2FFF6
:1007B000F8BD2100280000F0E3FF0000034B1B6898
:1007C00002201840431E9841C0B2704700C0064046
:1007D00000231F2B08D8054A9A189200BFF35F8F99
:1007E000002111600133F4E77047C0464000003437
:1007F000054A1078431CDBB21370172B02D9130083
:1008000010221A707047C0465802002070B50400CC
:100810000D00062001F0CEF8C000290002F082FC95
:10082000C60908D00E4B9E4217D87F2318400130CE
:100830003500460800E001256562A6622C34802060
:100840008001044300232360062001F0B3F88000F8
:10085000A901891902F066FC70BD0026014DEBE785
:10086000FEFF0000FFFF0000002909D00A22064B0E
:100870009C466044434258414000044BC25270477A
:1008800080225200F3E7C0460080FCBF94050020A0
:1008900070B505000C00062001F08CF8002829D066
:1008A000164B9D4227D08022D203154B1A60154B60
:1008B0001A60154B9B6811009943FAD1002128005A
:1008C000FFF7D2FF21002800FFF7A0FF2C002C34F7
:1008D000E96A60224A406E2111408022520122437F
:1008E00011600A4B2B6380239B01234310221A6063
:1008F0000323AB6470BD80221204D6E7008003405E
:1009000000E0004000F0004000C000400103000093
:1009100070B505000C00080000F07CFB200000F022
:100920004DFC0849200000F08DFBFFF761FF064BEE
:100930009C466044800068602C75A400034BE55021
:1009400070BDC046250C001040000034600500203A
:1009500010B5002922D003681B7B99421ED8174B83
:100960009C466144090183689C4661440C6849685F
:10097000002A19D003681B7B9A4215D883680F4858
:100980008446624412019A181068536802000120DC
:100990008B4201D80ED00020C0B210BD084B094ACE
:1009A0003B21094800F0CEFE054B064A3B21064894
:1009B00000F0C8FEA242EFD8EDE7C046FFFFFF0FF0
:1009C0006C450010A04700103445001010B50029F8
:1009D0001ED0037B99421BD84B005B18033B046875
:1009E000A4466344002919D0002A1DD0914221D089
:1009F000002A25D0047BA24222D804685000801827
:100A0000033820188170197800291FD11A7010BD81
:100A1000104B114A6921114800F094FE104B114A05
:100A200070310E4800F08EFE0F4B0E4A71210B48BC
:100A300000F088FE0D4B0B4A7221084800F082FE40
:100A4000044B054A6921054800F07CFE41701A708C
:100A5000DDE7C046A045001060470010BC4500100F
:100A6000084600106C470010144600102046001085
:100A700070B506000D001400002914D0002A14D00F
:100A8000806873689847002806D02200290030004B
:100A9000FFF79CFF280007E02A0021003000FFF745
:100AA00095FF200000E0100070BD0800FCE700008A
:100AB000F0B583B00500009201930AAB1C780BAB34
:100AC0001F78002C26D003685A7B944207D101235B
:100AD000002B19D1002C3BD1200003B0F0BD002C1D
:100AE0000CD01A7B944209D81A6863001B19033B87
:100AF000D3189B78002BEBD00123E9E73E4B3F4A0C
:100B000069213F4800F01EFE3E4B3F4A65213F48A9
:100B100000F018FE03689C7B002CDBD012D01A7BFF
:100B200094420FD862001219033A19688C46624445
:100B300051789973002900D1D973002393705370B1
:100B40001370C7E72C4B2D4A69212D4800F0FAFDA0
:100B5000002C3AD02B681B7B9C4236D82C4BE318D8
:100B60001B01AA6894466344009A1A60019A5A606D
:100B7000089A9A60099ADA602E68002C2BD030D03F
:100B8000337B9C422DD863001B19033B326894468B
:100B9000634400229A705A701A70717B22003000F0
:100BA000FFF766FF7073844200D095E7287D009AB6
:100BB000019B00F08FFA061E01D0002F17D00C9B6E
:100BC000002B00D188E71E7086E7124B124A3B21AA
:100BD0000E4800F0B7FD114B114AA621084800F05D
:100BE000B1FD054B054A6921054800F0ABFD2868B9
:100BF000210000F0B9FCE2E7A045001060470010BA
:100C0000BC45001038460010C047001034450010A5
:100C1000FFFFFF0F6C450010A0470010304500108B
:100C200080470010F0B5DE4657464E464546E0B5D3
:100C30008BB00990002308938200B34BD65837003D
:100C400052E0B24BB24A3D21B24800F07BFDB24BBC
:100C5000B24A3B21B24800F075FD002901D10028BD
:100C600069D10021404600F075FCA04219D12A68E4
:100C70006B6806920793AB689846EB689A464346C2
:100C8000002B14D0002C18D03B681B7B9C4214D83E
:100C9000631EFA68D35C08931B0218433861002076
:100CA00015E0A04BA04A8C219D4800F04BFD9F4BC6
:100CB0009D4A90219A4800F045FD974B9C4A40215F
:100CC000974800F03FFD00239A46984600207B6835
:100CD000BFF35F8F00221A6086F310884346002B13
:100CE00032D1002800D107E100F0A0F902000B1E6C
:100CF000A7DB00200021069007917868EFF31086AB
:100D000072B601680029FCD0BFF35F8F396888464E
:100D10004C7B002CD7D09AD0097B8C4297D8854940
:100D200065182D01B9688C46654428686968801A81
:100D30009941002991DD2A686B68099800F0CAF989
:100D400000239A469846C2E7089B1B022343994614
:100D500051461800C04705000E007A68EFF3108B6B
:100D600072B6136859424B41D9B2002BF9D1BFF387
:100D70005F8F002E26DB002E52DD3B69002B53D007
:100D80004B4572D100F052F902000B1E73DB0100DB
:100D9000180052197341984202D804D1914202D9E5
:100DA00001225242D317002B6BDB00210491013149
:100DB0000391029451460191414600913800FFF79A
:100DC00077FE49E03B69002BD5D04B451CD1069AF4
:100DD000079B10001900521BB341994202D804D15D
:100DE000904202D901225242D317002B12DB00217C
:100DF00004910131039102945146019141460091C1
:100E00003800FFF755FE27E04B4B474A9F214448E7
:100E100000F098FC3D4B3E4A3D213E4800F092FCDC
:100E2000002E01D1002DA8D13A68002C45D0537B6B
:100E30009C422CD1012100293FD1D37B002B42D1F0
:100E4000D473002C52D03B681B7B9C424ED8FA686E
:100E5000013C135D0133135500233B617A68BFF3F6
:100E60005F8F13608BF310883EE7334B2E4AA2212D
:100E70002B4800F067FC254B254A3D21254800F012
:100E800061FC224B224A3D21224800F05BFC002CF1
:100E90000DD0137B9C420AD863001B19033B1068DA
:100EA000844663449B78002BC5D00121C3E7234BC4
:100EB000234A6921234800F045FC234B234AF721AC
:100EC000204800F03FFC002B0AD0117B8B4207D852
:100ED0005900CB18033B11688C4663445C70AFE744
:100EE000164B174A6921174800F02CFC0A4B104A90
:100EF00040210B4800F026FC0BB03CBC90469946C4
:100F0000A246AB46F0BDC04660050020604600101A
:100F1000484700107C4600106C450010A0470010A8
:100F200034450010C4460010D8470010DC460010BD
:100F3000AC470010FFFFFF0FE8460010A04500106F
:100F400060470010BC450010244700109047001077
:100F500010B50A4B5B68002B04D00A21084800F04A
:100F60004DF910BD054C2300064A1021206800F001
:100F700011FA03212000FFF7CBFCEEE75C02002012
:100F8000700500205109001070B5EFF305833F2074
:100F900018401038EFF3108472B6194B1B68002B01
:100FA000FBD0BFF35F8F012319008140154A5163C5
:100FB000154A12781500C5402B4214D0114B5D6ABA
:100FC0008300124E9B599D4206D38300104D5B59FE
:100FD0008A430D490A7007E00A4A031D9B0099588D
:100FE0009950002300E00023BFF35F8F044A0021E3
:100FF000116084F31088002B00D0984770BDC04664
:10100000280100D000400540900500207405002014
:10101000E004002010B50100024A0348FFF7B4FBCA
:1010200010BDC046F44700108E050020044B5B6ADB
:10103000034A906A1900536A9942F9D17047C04631
:101040000040054070B504000D00EFF3108672B645
:101050001B4B1B68002BFBD0BFF35F8F002D1CD0F8
:10106000200000F01FFD174B83420BD01900200019
:1010700000F020FD0121200000F00CFD0123A34021
:10108000114A1360A400114BE550BFF35F8F0C4B66
:1010900000221A6086F3108870BDA2000B4B00215D
:1010A000D1500122A2400A490B7893430B700549A5
:1010B000200000F029FD0021200000F0EBFCE4E717
:1010C000280100D0890F001038600540E00400209E
:1010D00090050020F0B5DE4600B584B00400150090
:1010E00001921E000293FFF7A1FF03958E4202D8E2
:1010F0004ED185424CD9EFF3108B72B6274B1B684B
:10110000002BFBD0BFF35F8F254A17780125A54040
:10111000EBB23B431370234B5D63221D9200019998
:10112000D150A2002049029850501B6A2B4212D184
:101130001C4B1B6C2B4208D00020BFF35F8F174B5A
:1011400000221A608BF3108823E0184B184AC12143
:10115000184800F0F7FAFFF769FF8E4214D802D161
:10116000039B834210D80E4B1B78BB420ED00D4B15
:101170001D625D631F2004400123A3400E4A1360DB
:10118000074B1F701E38D8E70020D6E70120D4E7B0
:10119000012004B004BC9346F0BDC046280100D035
:1011A00090050020004005407405002018480010FC
:1011B000804800103C48001080E200E010B5EFF3DA
:1011C000108472B60A4B1B68002BFBD0BFF35F8FF5
:1011D00001238340074A136207490A789A430A7039
:1011E000BFF35F8F024B00221A6084F3108810BD9A
:1011F000280100D00040054090050020024B9C468D
:1012000061448900016070474000003470B50400FB
:101210000D00FFF7EDFA01002000FFF7EFFFFF23BD
:1012200023716571BFF35F8F70BD10B50021FFF7AB
:10123000EDFF10BD10B5FF21FFF7E8FF10BD000066
:1012400010B500291ED0037B99421BD84B005B18B8
:10125000033B0468A4466344002919D0002A1DD02A
:10126000914221D0002A25D0047BA24222D80468D2
:1012700050008018033820188170197800291FD178
:101280001A7010BD104B114A6921114800F05AFA2A
:10129000104B114A70310E4800F054FA0F4B0E4AB1
:1012A00071210B4800F04EFA0D4B0B4A7221084891
:1012B00000F048FA044B054A6921054800F042FA5B
:1012C00041701A70DDE7C046A0450010304A00109A
:1012D000BC450010084600103C4A0010144600109F
:1012E0002046001070B506000D001400002914D02F
:1012F000002A14D0806873689847002806D022001E
:1013000029003000FFF79CFF280007E02A00210099
:101310003000FFF795FF200000E0100070BD0800CE
:10132000FCE7000010B50023437301338373037B94
:10133000C3730123027B9A4214D9002B0CD0027B89
:10134000934209D85A00D218033A01688C46624485
:101350000133DBB25370EDE70B4B0C4A69210C48AB
:1013600000F0F0F9002A09D0924207D80168530032
:101370009A18033A8A180023537010BD024B034A8F
:101380006921034800F0DEF9A0450010304A001042
:10139000BC45001010B5017342608360FFF7C2FFC7
:1013A00010BD000070B50400081E00D170BD0029FA
:1013B00034D0237B994231D84B005B18033B226821
:1013C000944663445A78002AF0D02DD0237B9A4269
:1013D0002AD853009B18033B21688C4663445D78F0
:1013E00000215970002825D0237B984222D8430041
:1013F0001B18033B21688C4663440021597001008F
:101400002000FFF76FFF060029002000FFF7CAFF4A
:10141000020031002000FFF765FFC7E7084B094ACB
:101420006921094800F08EF9054B064A69210648F2
:1014300000F088F9024B034A6921034800F082F961
:10144000A0450010304A0010BC45001070B50500E2
:101450000C001600002928D02DD0037B99422AD8F1
:101460004B005B18033B0268944663445A78002A99
:1014700027D19A78002A2AD11978FFF793FF030021
:10148000002E03D0EA7B002A27D1EC73002B37D142
:10149000002C49D02B7B9C4246D82B6861000C194C
:1014A000033C1C190023637070BD224B224A382173
:1014B000224800F047F9224B224A6921224800F0D5
:1014C00041F9224B1C4A3A211C4800F03BF9204BC1
:1014D000194A3B21194800F035F9002A0AD0297B26
:1014E0008A4207D851008A18033A29688C46624418
:1014F0005470CAE7124B134A6921134800F022F9CD
:10150000002B0BD02A7B934208D843001B18033BC7
:101510002A689446634400229A70B9E7084B094A46
:101520006921094800F00EF9054B064A6921064871
:1015300000F008F978490010504A00108049001066
:10154000A0450010304A0010BC450010BC490010F6
:10155000E449001070B504000A00457B2900FFF73C
:1015600075FF6073280070BD70B50400002966D057
:10157000437B8B420ED0002911D0037B99420ED8B9
:101580004B005B18033B0268D0188378002B0CD10A
:10159000002055E00121FFF7DDFF012050E0294B3D
:1015A000294A6921294800F0CDF8002B1FD0227B61
:1015B00093421CD825685A00D318033BEA18EB5C09
:1015C0008B421AD0002B1BD0227B934218D85A0092
:1015D000D318033B2268D21853788B4216D0002BC5
:1015E000F0D11B4B1B4A67211B4800F0ABF8154B91
:1015F000154A6921154800F0A5F84378137007E0F3
:10160000104B114A6921114800F09CF8437853703F
:1016100000238370437001222000FFF717FF0200B0
:10162000617B814205D02000FFF75CFE60730120E2
:1016300006E00A4B074A6D21074800F083F80020B6
:1016400070BDC046A0450010304A0010BC450010D7
:10165000084A0010644A001080490010104A001027
:1016600070B5264B264A1A60264B274A1A60274B2C
:101670009A68254B9343FAD1254C264B9C4202D2C3
:1016800008CC9847F9E700F015F91E4B224A1A607A
:101690001E4B9B68DB43DB01FAD1204B40229A674B
:1016A0005A671A67DA661E4C03E02000FFF7BDFD9B
:1016B00008341C4B9C4206D26379002BF5D02000E5
:1016C000FFF7B8FDF4E7184CA168184DC0222800B8
:1016D00002F042FCA560FEF7C6FD002800D000BE67
:1016E000FFF776F800F072FBFFF732FC104C01E0D8
:1016F00008CC98470F4B9C42FAD370BD00E00040E5
:10170000BFCDFBFE00F00040FE7F3C0000C000406B
:101710001403002024030020FFFFFF0100F001401C
:10172000040300201403002000ED00E0000000206E
:10173000240300202C03002000BEFDE710B5FFF7B6
:10174000FBFF000010B582B00C001900002A0CD07D
:10175000084B002A0BD00192009323000200064898
:1017600002F030FD0120FFF7E7FF044BF1E7034AE9
:10177000F1E7C0467C4A00108C4A0010884A0010ED
:101780000FB400B583B0084802F0ECFC049B002BBA
:1017900007D005A90191180002F0F2FC034802F0FD
:1017A000E1FC0120FFF7C8FFBC4A0010CC4A001042
:1017B000F8B5DE4657464E464546E0B505000F00F3
:1017C00092461E000A9B9E424ED3330E9946360225
:1017D0000A9A00233000494601F0E6FC80466C007E
:1017E0006419A4002E4B9C4664446368834200D273
:1017F00060602B1FDBB29B46012B3BD9C0239B01B2
:101800002343802212011A60AB00264A995800290E
:1018100005D0506901F086FC01300138FDD15346F6
:101820005A0123685A40E0231A4080235B01234376
:101830001A605A46012A28D980239B01234380221B
:1018400012011A6043466360424600233000494655
:1018500001F0AAFCAD00134B585101203CBC90464E
:101860009946A246AB46F8BD0F4B104A2D211048B1
:10187000FFF768FF012FC1D1C0239B01234303223F
:101880001A60A368DB07FCD5C9E721687940032209
:101890000A401A60A3680122BA401A42FAD0CBE784
:1018A00000800040F0040020D04A0010284B0010B7
:1018B000E44A001030B583B00C2000F01FFBFEF7A7
:1018C0007DFF00280DD00023092B05D899002D4A53
:1018D0002D4888500133F7E72A4B2C4A5A6203B04F
:1018E00030BD2B4B00229A6700F010FB294B0122E0
:1018F0001A60274B5B6C012BFBD1274B03221A602C
:10190000234B9B6B012BFBD1022400940533234A0C
:101910000121234800F066FA00940523214A0121A1
:10192000214800F05FFA214B00930022022104209D
:10193000FFF73EFF1E4D00952B00002201210520E0
:10194000FFF736FF104C00942300002200210720EF
:10195000FFF72EFF00942300002200210820FFF74C
:1019600027FF0A4B00932300002200210920FFF7E4
:101970001FFF00952B00002200210620FFF718FF13
:10198000ADE7C046F0040020006CDC021BB700008D
:10199000008000403CB0004030B00040002F68594B
:1019A0000080024000389C1C00C00240001BB700B1
:1019B000405973078000014BC0587047F004002065
:1019C000074B9B68103080001950BFF35F8FBFF347
:1019D0005F8F044B0021196082F310887047C04666
:1019E00000ED00E0240100D010B5091A04394808C0
:1019F000090B05D14005400D044B184380B210BDC2
:101A0000034B044A8C210448FFF79CFE00E0FFFFD3
:101A1000384B0010184D0010484B001010B5091A33
:101A200004394C08090B08D14905490D064A1143F0
:101A30000180064B2343438010BD054B054A94218A
:101A40000548FFF77FFEC04600F0FFFF00F8FFFFEC
:101A5000384B0010244D0010484B001001238340E8
:101A6000034A10681840431E9841C0B27047C046F0
:101A700000E100E0002904D0034B1860034B18601C
:101A80007047034B1860FBE780E200E000E100E0F4
:101A900080E100E010B5012383401800FFF7EAFF62
:101AA00010BD0000024B9B6810308000C05870478A
:101AB00000ED00E070B504000D00EFF3108672B683
:101AC0000C4B1B68002BFBD0BFF35F8F2000FFF790
:101AD000E9FF094B984201D0A84205D13200290004
:101AE0002000FFF76DFF70BD044B054A70210548CB
:101AF000FFF728FE240100D0CD010010884B001014
:101B0000FC4C0010484B0010F0B5CE46474680B55F
:101B100083B006000D00EFF3108872B6574B1B68B8
:101B2000002BFBD0BFF35F8F554B9A683400103405
:101B3000A300D758534B9F4207D0AF4200D19BE040
:101B40000197514BFB1A2F2B09D94246390030001F
:101B5000FFF736FF03B00CBC90469946F0BD30004D
:101B6000FFF77CFF814600213000FFF793FFBFF3B2
:101B70005F8FFEF778FB002801D0844219D1012342
:101B8000019C9C43230040495B1A5B4148495943EF
:101B9000090D49B20022A368AB4212D00622A25618
:101BA000002A0DDB53009B189B002200364CE418E2
:101BB000F1E72021354B364AFF313648FFF7C2FDA9
:101BC0002200AB4251D106256557002D39DB6B0051
:101BD0005B199A002C4B9B189A68A260DA79E27123
:101BE00006229A56A2719B795BB2002B10DABD20B7
:101BF0000002A0806B005B199B00234AD318264A81
:101C000011789971157049463000FFF743FF9CE742
:101C1000201D6B005B199B001B4A9B181A1D9B889B
:101C2000D90A1C2907D15905491502314900511813
:101C3000FFF7DAFEDDE7194B194A9A211548FFF73D
:101C400081FD00280CD1002A08D0FF239371154B89
:101C50009380114B1A78A2711970D4E7094FF8E7F5
:101C6000201D1149FFF7DAFECDE7AA210F4B084AE4
:101C700049000848FFF766FD024F66E7240100D0DF
:101C800000ED00E0CD010010840200209C4C00100B
:101C90004C4D0010484B00108F050020844C001064
:101CA0003C4D001000BDFFFFBE020020C04C0010E4
:101CB000AAAA000010B5032304009C43064A9446D8
:101CC000644422681840C000FC3383409A431300E8
:101CD00081400B43236010BD00E400E0F8B5040030
:101CE000012606432D4BF31A2F2B28D8FEF7BBFAFB
:101CF00000282BD0EFF3108772B6294B1B68002BFE
:101D0000FBD0BFF35F8F2300244D5B1B5B412E4D47
:101D10005D432D0D6DB2234B9B6880001B58B34271
:101D20001BD00022032A32D853009B189B001B496A
:101D3000CB189B795BB2AB421FD00132F2E7722124
:101D4000194B1A4AFF311A48FFF7FCFCBA21194B0C
:101D5000164A49001648FFF7F5FC124B9B68164AD5
:101D60001A50164B1A78A2711D70BFF35F8F0C4B7F
:101D700000221A6087F31088F8BD080053009918F4
:101D800089004118FF268E710D4A8A80E9E7862175
:101D90000C4B064AFF310648FFF7D4FC84020020B2
:101DA000240100D000ED00E0C84C0010604D001090
:101DB000484B0010F04C0010CD0100108F050020A2
:101DC00000BDFFFF084A0010AAAA000010B50024B9
:101DD0001F2C05D880212000FFF76CFF0134F7E7A6
:101DE00010BD0000F0B5CE4600B504000E009146CF
:101DF0001F000C2001F096F9050043011B1A990100
:101E0000C91AC90009188901484601F08BF9020076
:101E1000103A98235B009A4233D87B1E062B36D8A3
:101E2000069B013B062B32D8069B9F4235D34B467F
:101E30001A09AA4237D33F04069B1D032F43236888
:101E4000002B36DB234B9C4241D080256D01224B79
:101E50001D60224B1D60224A92682B009343FAD1E9
:101E60002660A060221DC0239B01134321221A601B
:101E70002268002AFCDAE76008221A6004BC914656
:101E8000F0BD184B184A16211848FFF75BFC184B99
:101E9000154A19211548FFF755FC164B124A1F2108
:101EA0001248FFF74FFC144B0F4A22210F48FFF74F
:101EB00049FC22683F231340B342C3D1A3681B05EA
:101EC0001B0D8342BED1E368002FBBD1D6E780252E
:101ED000AD01BCE700C0024000E0004000F000405F
:101EE00000C000407C4D0010584E0010984D00106E
:101EF000D84D0010244E00103C4E001080239B0053
:101F00000343014AD362704700800540064BAA2272
:101F100012011A602F22DA60044B054A1A60024B44
:101F20005B68002BFBDA7047004002400060024013
:101F300000B0FA00704710B5002802D00B6849685D
:101F4000984710BD010000200A681378303BDBB2CF
:101F5000092B08D883001B185B00501C0860107800
:101F6000C0183038F0E77047F0B5DE4657464E46A9
:101F70004546E0B583B093461F000C9B9A460D9CE6
:101F80000E9B99460F9B9B0703D0B8460F00060097
:101F900022E00192A34688464E46B9460700B44265
:101FA00007D2551C4B4641462020B84701342A0031
:101FB000F5E73D004F465C46019B9B46B1464646D1
:101FC000B84637002E0007E0013C551C5346185D0B
:101FD00043463900B0472A00002CF5D135003E00B9
:101FE00047460F9B9B0707D4100003B03CBC9046AC
:101FF0009946A246AB46F0BDB0464E46B9462F00C4
:102000005D46531BB342EFD2541C4B464146202041
:10201000B8472200F5E7F0B5CE46474680B585B013
:10202000944698460C9D0D9C0EAB1B789946109AD1
:10203000119B129EB7071BD4002B08D0F70706D5BB
:102040004F46002F02D10C37374200D0013B94425B
:1020500008D21F2C06D830272F550134F7E7302738
:102060002F550134F70703D59C4201D21F2CF6D916
:10207000F70615D5770505D4002C03D0944224D05B
:102080009C4222D00F9A102A2BD00F9A102A30D0BF
:102090000F9A022A35D01F2C02D830222A5501343B
:1020A0001F2C05D84A46002A31D02D222A5501344A
:1020B000039602930194009543466246FFF754FF4E
:1020C00005B00CBC90469946F0BD621E012C06D0AE
:1020D0000F9F102F01D01400D4E7023CD2E7140068
:1020E000D0E7B206D1D41F2CCFD878222A5501349C
:1020F000D1E7B206CCD51F2CCAD858222A550134B4
:10210000C9E71F2CC7D860322A550134C3E77207CC
:1021100003D52B222A550134CAE73207C8D520221D
:102120002A550134C4E7F0B5DE4657464E464546CB
:10213000E0B593B081468A46089209931CAB10CB58
:102140001B789B461E9D219B9846002C03D1102393
:1021500042469A4390468023DB0046461E40424654
:102160001A4212D0002C22D000260EE03033D9B211
:10217000771C0AAB99552900200000F0D3FFAC4230
:1021800016D31F2F14D83E0004002900200000F0B1
:10219000C9FFCBB2092BE9D94246920605D54121A8
:1021A000C918C9B20A39C9B2E2E76121F8E72700C4
:1021B00043460693209B05931F9B049303955B4620
:1021C000029301970AAB0093099B089A514648462F
:1021D000FFF721FF13B03CBC90469946A246AB46A0
:1021E000F0BDF0B5DE4657464E464546E0B595B0E3
:1021F000089009910A920B931E9E1F9C20AB1B789E
:102200009B46229B9946239D269B9A463300234357
:1022100003D1103352469A4392468023DB0057463F
:102220001F4052461A4219D0330023432DD00027B5
:1022300014E03033DAB27B1C98460CABDA554A46D0
:102240002B003000210000F0AFFFA5421FD819D0AD
:1022500043461F2B1BD8474606000C004A462B005E
:102260003000210000F0A0FFD3B2092BE1D9524683
:10227000920605D54122D218D2B20A3AD2B2DAE792
:102280006122F8E7B145E3D901E0002398465346BF
:102290000693259B0593249B04934B4603935B462F
:1022A0000293434601930CAB00930B9B0A9A099946
:1022B0000898FFF7B0FE15B03CBC90469946A24680
:1022C000AB46F0BDF0B5DE4657464E464546E0B556
:1022D00091B083468A460C9298461A9C08941B9D9E
:1022E000099522002B002000290001F0EAF90028BE
:1022F00000D0E5E001225242D34B2000290001F03A
:10230000DBF9002800D0DBE001225242CF4B200055
:10231000290001F0BBF9002800D0D1E00022002301
:10232000089D2800099E310001F0B0F9002800D076
:10233000DDE008980999069007918023DB001E9A3A
:102340001A400D921E9A1A4201D106231C93069838
:10235000079904000D000A000600024300D1CDE0F9
:10236000080D4005400DBA4CA44660440A03120B08
:10237000B84B13431F0001F0B7F9B74AB74B01F050
:1023800042F9B74AB74B01F017F904000D000022DB
:10239000B54B3000390001F006F9B44AB44B01F0F6
:1023A00032F902000B002000290001F005F901F0CC
:1023B000B3F9814601F098F904000D00AD4AAE4B27
:1023C00001F021F90022AD4B01F0F6F801F0A4F97B
:1023D0000600AB4AAB4B2000290001F014F90400C1
:1023E0000D00300001F080F9A74AA84B01F00BF96D
:1023F00002000B002000290001F0D5F804000D00B8
:1024000002000B0001F0FFF80A900B91A04BF318AB
:1024100000261F0522002B002000290001F0CCF827
:102420000E900F9122002B0000208021C90501F0A1
:10243000BAF804000D000022964B0A980B9901F09F
:10244000C4F80022944B01F0B7F802000B000A9880
:102450000B9901F0BAF80022904B01F0ADF80200A0
:102460000B000A980B9901F0B0F802000B00200055
:10247000290001F0A1F802000B000E980F9901F05D
:10248000A4F80022734B01F097F832003B0001F0F2
:10249000BAF806000F0004000D00069A079B01F031
:1024A0000BF900282CD001235B429C46E14400221A
:1024B000794B3000390001F088F804000D001FE06E
:1024C0001E9B04931D9B03931C9B0293089A099BDC
:1024D0000092019343460C9A5146584600F0F8F892
:1024E00011B03CBC90469946A246AB46F0BD06955D
:1024F00080231B069C46664407961EE700239946E8
:102500004B466333C62B1FD804261E9B1B0527D5BD
:102510002B00234310D0624A624B0698079901F0C2
:10252000C3F8002800D183E000225F4B069807998A
:1025300001F0ACF800287BD01C9B4B4506DD4A46D9
:10254000981A431E1C9303E00526DEE700231C9324
:102550008023DB001E9A1A431E9200260023994610
:102560001D9B9E426ED29F1B02231E9A1A400A9206
:102570001E9A134202D0002E00D000274B46002B9B
:1025800007D022002B000698079901F01EF806904C
:102590000791002200230898099901F077F8002894
:1025A00000D085E0414B1E9A1340049303971C9B77
:1025B0000293069B079C0093019443460C9A514654
:1025C000584600F085F8002E00D189E71E9B9B0637
:1025D0007AD54525441C4346020051462800D84779
:1025E0004B46DA179B18534005220592013E04968C
:1025F000002203920A3202924A46D00F01900093C1
:102600004346220051465846FFF78DFD0A9B002B9A
:1026100000D165E702005F460C9E1D9D931BAB42F7
:1026200054D2541C434651462020B8472200F5E7B7
:102630001C9B002B94D00D9B002B91D01C9B013B2D
:102640001C938DE700278FE7FFFFEF7FFFFFEFFF72
:1026500001FCFFFF0000F03FFB799F501344D33F84
:10266000B3C8608B288AC63F0000F83F61436F63A0
:10267000A787D23F71A379094F930A400000E03F3A
:102680001655B5BBB16B0240EF39FAFE422EE63F5C
:10269000FF03000000002C40000024400000184010
:1026A0002D431CEBE2361A3F80842E41FFF7FFFFDB
:1026B000069C079D22002900802000068446614474
:1026C0000B00069207936DE7652583E7100007E787
:1026D000F0B5DE4657464E464546E0B595B0069005
:1026E000079193469946209F1E9A1F9B1000190040
:1026F00000F0E7FF002831D101225242BF4B1E9863
:102700001F9900F0C3FF002837D101225242BC4B71
:102710001E981F9900F0D0FF00283DD10022B94B30
:102720001E981F9900F0C8FF002850D10022B64B18
:102730001E981F9900F0AAFF002848D1002200230C
:102740001E981F9900F0A2FF002850D10023984640
:10275000229B5B0500D4B6E0002458E0229B039343
:10276000219B029303230193A84B00934B465A46A7
:1027700007990698FFF7F8FB0EE1229B0393219B34
:10278000029304230193A24B00934B465A460799A8
:102790000698FFF7E9FBFFE00423229A1A402299EA
:1027A0000B4210D09B4B002A0FD004222299039198
:1027B00021990291019200934B465A460799069837
:1027C000FFF7D2FBE8E0944BEDE70322EEE7229B14
:1027D0000493219B039302971E9B1F9C00930194DB
:1027E0004B465A4607990698FFF76CFDD4E01E9AAF
:1027F0001F9B0020002100F0D6FE1E901F91012398
:102800009846A5E70CAB30221A55013F01341F2C26
:1028100001D8092FF6D81E981F9900F07DFF0500FA
:1028200000F062FF02000B001E981F9900F0BBFE33
:10283000FA007A4B9B181A685B680A920B9300F0B7
:10284000E2FE0890099100F08BFF060000F048FFBF
:1028500002000B000898099900F0A5FE0890099164
:1028600000226F4B00F028FF00282ED001363000E8
:1028700000F036FF02000B000A980B9900F00CFFE5
:10288000002801D001350026002F2CD1280000F0AF
:102890002BFF02000B001E981F9900F084FE06001B
:1028A0000F0000225E4B00F0F1FE002842D1002212
:1028B0005B4B3000390000F0FFFE00283AD1EB07F7
:1028C00038D5013536E0062746E70022544B0898F4
:1028D000099900F0DBFE0028D6D1002E01D0F307C5
:1028E000D2D50136D0E7AA461F2C11D8013F0A21C4
:1028F000300000F017FC651C30310CAB19550A2173
:10290000300000F00FFC092E26D906002C00EBE762
:10291000554604E00CAA302111551F0001341F2C2C
:1029200002D87B1E002FF5D11F2C03D80CAB2E2212
:102930001A5501341F2C14D80A21280000F0CAFBB4
:10294000661C30310CAB19550A21280000F0C2FB7F
:10295000051E05D03400EDE72B0055461C00DEE7D0
:1029600034000323229A1340012B1CD01F2C06D8BD
:102970004346002B32D00CAB2D221A550134229B3A
:102980000393219B029301940CAB00934B465A4650
:1029900007990698FFF7E8FA15B03CBC90469946AF
:1029A000A246AB46F0BD219B002B13D04346002B23
:1029B00002D10C3313420FD0219B013B219319000C
:1029C00003E00CAB30221A5501348C42CED21F2CBE
:1029D000F7D9CBE72199F8E72199F6E7229B5B0726
:1029E00004D50CAB2B221A550134C8E7229B1B07D8
:1029F000C5D50CAB20221A550134C0E7FFFFEFFF0D
:102A0000FFFFEF7F65CDCD4165CDCDC1704E00108C
:102A1000744E0010684E0010644E0010605000109C
:102A20000000E03FF0B5DE4657464E464546E0B56D
:102A300093B082468B4690461193002900D1ECE278
:102A400000275546119B1878002800D1E8E2252878
:102A500009D07C1C43463A005946A847119B0133D4
:102A600011932700EEE70133119300241DE00B00C2
:102A7000303BDBB2092B37D92A293AD000230A93FD
:102A8000119B1A782E2A44D000239A46119A137863
:102A9000683BD9B2122900D980E08B00CB49CB58D2
:102AA0009F4601231C4301321192119A11780B00A9
:102AB000203BD8B21028DAD88300C548C3589F46B7
:102AC00002231C4301321192EFE704231C4301321D
:102AD0001192EAE708231C4301321192E5E7102323
:102AE0001C4301321192E0E711A8FFF72BFA0A907C
:102AF000C6E71C9B1A1D1C921868002804DB0A906C
:102B0000119B01331193BBE702231C4343420A93F9
:102B1000F6E78022D20014435A1C11925A7813000F
:102B2000303BDBB2092B04D92A2A07D000239A466E
:102B3000ACE711A8FFF706FA8246A7E71C9B1A1D0F
:102B40001C921868002804DB8246119B0133119304
:102B50009CE70020F8E780235B002343511C119180
:102B600052786C2A01D01C0018E0C0239B001C4343
:102B70000131119112E080232343511C11915278AD
:102B8000682A01D01C0009E0C0231C4301311191C7
:102B900004E080235B001C4301321192119B1878E2
:102BA0000300253BDAB2532A00D92CE29300894A6C
:102BB000D3589F4680239B001C4301321192EDE7BE
:102BC00080235B001C4301321192E7E7782809D08B
:102BD000582838D06F2838D0622838D010239C432A
:102BE0000A2600E01026582833D0692803D064282C
:102BF00001D00C229443630501D501229443692836
:102C00002AD0642828D0A30500D59FE0E30500D58D
:102C1000B8E0630600D4CAE01C9A111D1C9111682B
:102C2000FF220A4005940A9B04935346039302969D
:102C300000230193009243463A0059462800FFF7CB
:102C400072FA070027E01026CDE70826CBE7022618
:102C5000C9E720221443C8E7A30520D4E30550D4D4
:102C6000630666D51C9A111D1C911168FF220A404B
:102C7000D317D118594005940A9B049353460393E4
:102C80000296D20F0192009143463A00594628001D
:102C9000FFF749FA0700119B01331193D2E61C9B01
:102CA000DA1D07218A43110008311C91116853680D
:102CB0009C46DB170C930D930C9A0D9B100048401B
:102CC0000E90624653400F930E980F990C9A0D9BED
:102CD000801A99410E900F9108940A9B07935346CE
:102CE00006930496002305936346DA0F0292009040
:102CF000019143463A0059462800FFF772FA07004F
:102D0000C9E71C9A111D1C911268D317D11859409C
:102D100005940A9B0493534603930296D20F0192A3
:102D2000009143463A0059462800FFF7FCF9070096
:102D3000B1E7230605D51C9A111D1C910023D25E14
:102D400096E71C9A111D1C91126891E71C9BDA1DD5
:102D500007218A43110008311C9108940A9B0793AC
:102D60005346069304960023059302931368546810
:102D70000093019443463A0059462800FFF731FA80
:102D8000070088E71C9A111D1C9105940A9B049367
:102D9000534603930296002301931368009343461E
:102DA0003A0059462800FFF7BEF9070073E72306EB
:102DB00006D51C9A111D1C9112681204120C31E7E1
:102DC0001C9A111D1C9112682CE7C0467C4E001005
:102DD000C84E00100C4F001046281AD01C9B073319
:102DE000072293431A0008321C9204940A9A039211
:102DF000524602925C681B680093019443463A0075
:102E000059462800FFF764FC0700119B013311931A
:102E100018E620231C43E1E7672801D0472802D1A8
:102E200080231B011C43452801D0472801D12023C2
:102E30001C431C9B0733072293431A0008321C9241
:102E400004940A9A0392524602925C681B680093AB
:102E5000019443463A0059462800FFF733FA070029
:102E6000119B01331193EDE502231A002240924693
:102E700023421FD001241C9B1A1D1C927A1C9146D0
:102E8000187843463A005946A8475346002B16D1B6
:102E9000119B013311934F46D4E5561C43465946C6
:102EA0002020B847230032005C1C9D42F5D83D002D
:102EB0001700E0E701233A002F000A9DF4E74A4695
:102EC000A9460A9D06E0571C434659462020C8479C
:102ED00034003A00661CA542F5D84D469146D7E726
:102EE0001C9B1A1D1C921B6899465346002B00D14F
:102EF000013B4E4601E0013613003278002A02D031
:102F00005A1E002BF7D14B46F21A10928023DB0099
:102F100026001E401C4203D0524501D9534610934F
:102F200002231A0022400B92234205D03A003700B8
:102F30004C46A946554620E03A00109B5F46B346F2
:102F40002E0006E0551C434639002020B0472300E0
:102F50002A005C1C0A999942F4D835005E46BB46AB
:102F6000109437004C46A946554606E01D00013432
:102F7000561C43465946C84732002078002804D0E2
:102F8000002FF4D06B1E002DF0D117004D460B9B87
:102F9000002B03D1119B0133119353E50A9F109B22
:102FA00006E0561C434659462020A847230032001D
:102FB0005C1C9F42F5D81700ECE721231C431C9BA7
:102FC0001A1D1C921B680093059408230493534612
:102FD0000393102302930023019343463A0059467A
:102FE0002800FFF7A0F80700119B0133119329E592
:102FF0007C1C43463A0059462520A847119B0133C3
:10300000119327001EE57C1C43463A005946A84709
:10301000119B01331193270014E50B4B9A460FE5E2
:10302000AA4647450DD343465A1E434659460020FB
:10303000D047380013B03CBC90469946A246AB46F8
:10304000F0BD3A00F1E7C046351F001000B585B06D
:10305000029003910121009313004A4202A9024801
:10306000FFF7E0FC05B000BD371F00100148042148
:10307000014B1847D00200209D30001010B5010010
:1030800018231B8814221088984710BD10B5010022
:1030900018231B8816221088984710BDF0B5C64625
:1030A00000B507000E0000250123984600E0013519
:1030B000B5420AD2AC003C192068FFF7DFFF206060
:1030C0000028F4D100239846F1E7404604BC90461E
:1030D000F0BD0000124A936F9B0815D29066D1662E
:1030E000002905D0FFE7FFE7FFE7516F106F70473A
:1030F00004B580210906C2175140002800D0C843FA
:1031000001F0DAF9002104BDF0B5146E556E576F69
:10311000166FFFF7E3FF1466556657671667F0BD35
:10312000000000D0114A936F9B0813D210665166BD
:10313000002905D0FFE7FFE7FFE7516F106F7047E9
:1031400004B5002801D00020C04301F0B5F90021EA
:1031500004BDC046F0B5146E556E576F166FFFF77D
:10316000E5FF1466556657671667F0BD000000D08E
:1031700094464E4A926F9208624601D230E0C046B1
:10318000F0B54A4EB56F6D08FCD3346E756E776F2F
:10319000366F00F025F89446444A14665566576722
:1031A00016676246F0BDC0469446404A926F920848
:1031B000624601D258E0C046F0B53C4EB56F6D088E
:1031C000FCD3346E756E776F366F00F04DF8944611
:1031D000364A14665566576716676246F0BDC046A4
:1031E000002B24DB11D000293EDA00B5C943404250
:1031F00000D1013100F038F8C943404200D101311B
:10320000DB43524200D1013300BD002AEBD100283C
:1032100001D1002905D00020C90FC90701D1C04341
:10322000410800B501F040F90022002300BD00B5BF
:1032300000290ADBDB43524200D1013300F014F8CD
:10324000C943404200D1013100BDC943404200D1D1
:103250000131DB43524200D1013300F005F8DB437A
:10326000524200D1013300BD002923D1002B18D1D7
:10327000002A0CD0BC460D4F38667A660021002328
:10328000FFE7FFE7FFE77A6F386F67467047002870
:1032900001D00748010000B501F006F90022002323
:1032A00000BD02000B00002000217047000000D08C
:1032B000FFFFFFFF002B00D0BDE0130C26D1002A3A
:1032C000E7D080B4104F39667A66FFE7FFE730B485
:1032D000040C7B6F396F1B0423433B66FFE7FFE75A
:1032E000FFE7C04684B27B6F3D6F1B0423433B6600
:1032F000FFE7FFE7C04600232C042D0C7A6F386FE0
:1033000000196941B0BC7047000000D0F0B5944688
:103310000025140E01D112020835140F01D112013B
:103320000435940F01D192000235D40F01D152001F
:103330000135D40B0134254F7C66254C3C660E0CC0
:1033400093B2FFE7FFE7FFE73C6F6643360C770376
:10335000BE467343DF0B5B04C01AB941130C7343C1
:10336000DB18C91ACE086643360CB64493B27343D1
:103370001F0F1B01C01AB941130C73431F0B1B0510
:10338000C01AB941860D8F023E436643360C092DA3
:1033900024DB520A7243801A7703460A6643360CCE
:1033A00016235B1BDE40DF40BF1964466643821B69
:1033B0007046043506330100D940A840C01900D337
:1033C0000131A24206D20023F0BD0000000000D06F
:1033D000FFFFFFFF121B0130F3D3F1E709277F1B2B
:1033E000FE406446A2B27243801A00D20139220C18
:1033F0007243130C1204821A99410B007046043573
:1034000013370100F940A840801900D30131002B87
:1034100002D1A2420AD2F0BD013000D30131121B09
:10342000FAD2013BF8D1A24200D2F0BD013000D364
:103430000131121BF7E7F0B51C0C00D080E00CB492
:1034400000251C0A04D11B02160E33431202083554
:103450001C0B04D11B01160F3343120104359C0BC6
:1034600004D19B00960F334392000235DC0B02D14E
:1034700092185B4101351C00971864410134464F96
:103480007C66464C3C660E0CFFE7FFE7FFE7C04654
:103490003C6F6643360C7703BE4697B27743C01B3A
:1034A00000D20139C01B00D201399FB27743C91B3A
:1034B000C91B170C77437E04FF0B801BB941CE0854
:1034C0006643360C0C2D33DBB644120B1F053A4312
:1034D0001B0B97B27743C01B00D201399FB27743D1
:1034E000C91B170C77433E043F0C801BB941860D66
:1034F0008F023E43664329277F1BFE400C3D7746E3
:10350000AF40BF1930BCA2B2ABB272437343801A52
:103510009941220C7243130C1204801A9941020043
:103520000B000137001BA941F9D2781E0021F0BD24
:103530000C277F1BFE4077467F0BAF40FF19E0E76B
:1035400000245D1C07D0144F7D663966FFE7FFE756
:10355000FFE7FFE73C6F95B29EB265436643401BB1
:10356000B141150C1E0C6543664336042F0C3E43D7
:103570002D04401BB141994204D202000B002000EF
:103580000021F0BD01D19042F7D3801A9941013456
:103590009942F2D3F6E70000000000D0FFFFFFFFE2
:1035A00048404140484018B41B4B5B68FC460193BF
:1035B00008BD04DF6738001018B4174B1B68FC46C1
:1035C000019308BD00DF713800109446134A926FD2
:1035D000920809D2624618B40F4BDB68FC4601938F
:1035E00008BD0CDF293B00100C4AF0B5146E556E77
:1035F000576F166F6246FFF7EEFF084A146655666E
:1036000057671667F0BD18B4034B9B68FC460193DF
:1036100008BD08DFCD39001098050020000000D05B
:10362000FFB550404240504059404B40594000E0A7
:10363000FFB5154F4C00640D03D0BC4204D10C0300
:1036400014D80020090D09055C00640D03D0BC42AC
:1036500004D11C030AD800221B0D1B0501264B4078
:1036600009D44B4003D58B4200D18242FFBD994221
:10367000FCD19042FFBD0B43DB1803431343F5D04D
:10368000C9434918FFBD0000FF07000000B5FFF760
:10369000CFFF804100BDC04600B5FFF7C9FF01D98B
:1036A000002000BD012000BD00B5FFF7B9FF01D922
:1036B000002000BD012000BD00B5FFF7B1FF804133
:1036C00000BD012040054A00121804D85A00121803
:1036D00001D800207047012070470020704700008B
:1036E0000021002805D17047C1174840401AFAD080
:1036F000C90713B5064B1B6898470CBC441CA24075
:103700001005120B0349091B09051943114310BD8C
:10371000980700201F04000010B54C00620D8023A4
:10372000D218DB00D21A5B057E2A10DD9E3A13DA2E
:10373000CC170903490819435242D14064000134AF
:103740001532202A05DAD0400843604310BD00201E
:1037500010BD0846604310BDC80FC018013810BD29
:1037600018B4044B5B6AFC46019308BD24DF553D49
:10377000001000009805002070B513231C78012C60
:1037800007D0012C0EDC022C02DC1C4A1C4B9A6474
:1037900070BD00231F2BF4D899001848184A885090
:1037A0000133F7E71748FFF771FC05001648FFF7EC
:1037B0006DFC023803789B007F2B19DD80222900E5
:1037C0000F4800F0C9FB022CDDD1104B1A88B5233D
:1037D0001B029A4209D10E4B1A880E4B9A4204D111
:1037E0000D4B1A880D4B9A42CDD00020FDF7C8FF33
:1037F0000B4B0C4A30210C48FDF7A4FF2D3800106C
:10380000980500205344000053460000543800003F
:10381000D8380000494600009C3800005946000096
:10382000B05000105C5100101051001007B56046F8
:10383000002800D100BE01880A0A0230DF2AFAD12E
:10384000C9B2820804D3028840880004104300E013
:103850000068024A5050039007BD00009805002000
:103860000FB403BC0CBCF0B50124E407634000E0D6
:10387000F0B50C0DCF0F661E3605891B640503D30A
:10388000C943404200D30131640D03D0661CF60ADF
:1038900007D0E41B00207F00791C89078912803C37
:1038A00024031D0DDF0F6E1E36059B1B6D0503D314
:1038B000DB43524200D301336D0D03D06E1CF60A78
:1038C00007D0ED1B00227F007B1C9B079B12803DD5
:1038D0002D032F1B661B58D4A446202E46DA203712
:1038E0001400BC401D00BD40F24033412A43801803
:1038F0005941CB0F05D0C943C04300226442504117
:10390000514162464D0D28D10D0D07D100281FD021
:10391000241940414941013A0D0DF9D0640006D304
:10392000013000D30131002C01D140084000013AA0
:103930000BD4941CE40A04D112051144DB0719448A
:10394000F0BDD907204B194300E0D9070020F0BD96
:103950000029DDD1002CDBD1F0BD0132C6074008C3
:10396000CD0728434908002EE1D0D9E73C2E29DABB
:10397000203E40371400BC4000D00124F2401443E4
:103980001A00BB401C43D317ACE7AC46202F08DA23
:1039900020360400B4400D00B540F84039412843BA
:1039A000A5E73C2F0CDA203F40360400B44000D09D
:1039B0000124F84004430800B1400C43C117EAE772
:1039C00010001900002494E70000F07FF0B50C0D02
:1039D000661E3605891BE60A6405640D02D0651C67
:1039E000ED0A04D0002001210905803C2403A446EF
:1039F0001C0D671E3F05DB1BE70A6405640D02D042
:103A0000651CED0A04D0002201231B05803C240321
:103A10007740644497B484B296B27443070C7E43F3
:103A2000150C6F4380B26843361802D3012000049E
:103A30003F183004350C00197D41844688B29AB293
:103A400050430C0C62431F0C7C438EB27E43921990
:103A500002D301263604A4191604170C3618674140
:103A600001BC81B29AB25143040C62431B0C5C430B
:103A700080B25843121802D3012000042418100405
:103A8000130C401863412D185E410020474106BCCD
:103A900088B293B258430C0C6343120C544389B25E
:103AA00051435B1802D301210904641819041A0C4C
:103AB000091862416D1856410020474118BCF902AF
:103AC000720D1143F0026A0D1043ED020A0D03D18D
:103AD0006D1940414941013B124E9B1B7600B34298
:103AE0000ED26D0007D30130002671416646354382
:103AF00001D1400840001B05C918E4072144F0BD6E
:103B00000BDA013306D1013004D101314F0D01D060
:103B10004908F2E7E1070020F0BD01363105002039
:103B2000EBE70000FF030000F0B51C0D671E3F052A
:103B3000DB1BE70A6405640D02D0661CF60A04D09C
:103B4000002201231B05803C2403D0252D060026DE
:103B5000F6432E661E096E66CE0FF619B44649006E
:103B60004F0D02D07E1CF60A03D000200021403FFA
:103B70003F033E1BB600B444013F7F05C91B490803
:103B80002E6F013676089C02950D25437543ED1383
:103B90007543AD1301356D10F603761B0CB4CC02E2
:103BA000450D2C43A2B2B3B25A43270C7B43350CCC
:103BB0006F43A4B26C431B1902D3012424043F19A0
:103BC0001C041D0CA4187D4124196D41009A91B26A
:103BD000ACB26143170C7C432B0C5F4392B25A4347
:103BE000A41802D301221204BF182204230C521875
:103BF0007B41019C6C431B19520ED9010A434401BD
:103C0000A01A81B2B2B2514303145A43360C734323
:103C100087B27743D617D21900277E4136049B1905
:103C20001704160C7F185E417316ED18F301002679
:103C300080337541A90F06D16400690AE8055B0A63
:103C4000184309D22FE00422944480337541A90A15
:103C5000A8059B0A184326D3404149412404009AF1
:103C6000019B0D005543641B4343E41A95B286B291
:103C70007543170C7E43030C5F4392B25A43B61848
:103C800002D301221204BF183204330C52197B41B3
:103C900052429C41002C02D4002201305141400884
:103CA000CA071043490802B06246D7079210084B72
:103CB000D218084B9A4203D212058918C919F0BDCF
:103CC0000020002A01DC3900F0BD01331905F5E7B9
:103CD000FD030000FE070000624618CA9446002952
:103CE0001ADAC01861415B463B415C46B44052461B
:103CF000FA40224344464D4662416B419046994604
:103D00002B46B3403D41FC401C4352465B46A2411A
:103D1000AB4192469B467047C01AA1414B463B417E
:103D20004C46B4404246FA40224354465D46624106
:103D30006B4192469B462B46B3403D41FC401C43A1
:103D400042464B46A241AB419046994670470020FF
:103D500000217047002200B5203200F004F808006E
:103D600000BD000000220B15F1D410B5944600F000
:103D70002FF81414013400DA0021CB17134C20471C
:103D80006244343A0CD40C2A07DA04009140904083
:103D900052422032D440214310BDD843D94310BDF4
:103DA000203207D40C469440524220321141D04078
:103DB000204310BD0800C917203203D452422032DC
:103DC000104110BD1800190010BD0000813D001009
:103DD0000A0DCC0F531E1B05C91A520503D3C94344
:103DE000404200D30131520D03D0531CDB0A07D0EF
:103DF000121B00206400611C89078912803A12039B
:103E0000014BD21A70470000FF03000070B5132366
:103E10001D782A48FFF73AF90400012D11D0012D31
:103E200009DDA31E1B789B007F2B40DD8022210033
:103E3000234800F091F82348FFF720F9224B18603F
:103E400070BD542201001E4800F086F81F4B1A88EE
:103E50001F4B9A421CD1A7239B011A881D4B9A42E3
:103E600016D11D4B1A881D4B9A4211D11C4B1A8832
:103E700094239B019A420BD11A4B1A881A4B9A42EF
:103E800006D11A4B1A681A4B9A4201D1152307E042
:103E90001848FDF775FC99001748094A8850013306
:103EA0001F2BF8D9144A064B1A62DA61B7E7134B95
:103EB000134A42211348FDF745FCC0465346000013
:103EC000980600204C33000098070020EE290000DF
:103ED000C40F0000C20D0000962B0000C0B500000A
:103EE000182B0000CC2A000010B50000FC2C0000AC
:103EF00051ED8764884A0010093F0010705100108E
:103F0000EC510010A451001007B56046002800D104
:103F100000BE01880A0A0230DF2AFAD1C9B282083B
:103F200004D3028840880004104300E00068024A7D
:103F30005050039007BD000098060020014804215E
:103F4000014B1847E00200209D300010014B1B6818
:103F500018470000E0020020014B5B681847000092
:103F6000E0020020F8B507000D001600437C002B8E
:103F700002D0002400200CE00368110028009847BC
:103F80002DE03B7C10E0022115483B689847601CFF
:103F90000134B44214DA002CF3DD2B19013B1B78F9
:103FA0000D3B5A425341DBB22A5D0A2AF0D1002B65
:103FB000EED1A042E7DA211A28183B689847E2E7D9
:103FC000B04203DA311A28183B689847002E06DD04
:103FD000AD19013D2B780D3B5A4253413B74F8BD5E
:103FE0007C52001070B505000368002B16D00C4BF6
:103FF0001C6805E0290004C92000FFF7B3FFE4684E
:10400000002C09D02368002BF9D0064B1B68002B2D
:10401000F0D0A342F3D1EDE700232B6070BDC04682
:10402000580500205C05002070B505000C000B68E9
:10403000802B05D021684B1C23606418257170BD4E
:104040000800FFF7CFFFF5E710B582B0D0231B06BD
:1040500000241C5701A9074800F036FA002806D1B1
:10406000019B9C4203D0034800F036FA012002B0C5
:1040700010BDC0460C03002010B5024800F00CFA39
:1040800010BDC0460C030020F0B5C64600B582B096
:1040900006000D001700FFF7D7FF80466B1C02D00B
:1040A000184B1C680DE0300000F0BEF90500F7E782
:1040B0006B46D91D0A230B7001222000FFF752FF27
:1040C000E468002C10D02368002BF9D00E4B1B683D
:1040D000002B01D0A342F3D12A0031002000FFF7CA
:1040E00041FF002FECD0E3E74346002B06D1681ECA
:1040F0008541E8B202B004BC9046F0BDFFF7BCFFBA
:10410000F5E7C046580500205C0500200C4B1A68F6
:104110001300002B0BD0834202D01A00DB68F8E7B3
:10412000002903D1DB68D3600023C36070470029F6
:10413000FCD0002A01D0D060F8E7014B1860F5E709
:104140005805002010B5064B1C6800E0E468002C00
:1041500004D06368002BF9D09847F7E710BDC0463C
:104160005805002070B5050000F05EF9040001223A
:1041700001002800FFF788FFFFF7E4FF200070BD73
:1041800070B5A2B004000E00FFF75EFF05008422A8
:10419000002101A8FFF7DAFE3300220001A9084838
:1041A000FEF754FF040001A8FFF71CFFFFF7CAFF4A
:1041B000002D02D1200022B070BDFFF75DFFF9E7AE
:1041C000294000100FB400B583B004A901C90191C2
:1041D000FFF7D6FF03B008BC04B0184710B500F0D5
:1041E00083F810BDF0B583B000251AE06B460733A5
:1041F0000D241C70002403E01F7817600134013384
:10420000002C1CD19769BF06FCD4F5E71E78166018
:1042100001340133002C03D19669B606FCD4F5E7CE
:1042200001358D4210DA094B1A68465D084BD318E8
:104230005C4263415B00074C1B5FB342D6D06B46C8
:1042400007331E700024E5E703B0F0BD84050020AD
:104250000080FCBF94050020F0B583B0070000206B
:104260000DE09369DB06FCD413682B700134013533
:10427000002CF6D06B4607331B7803703000884261
:104280000CDA094B1A68936910252C001C401D425A
:1042900004D1461C38186B46DD1DE9E7002801D023
:1042A00003B0F0BD0338FBE78405002070B51500AE
:1042B0001C000B4B1860FCF7EBFA002D06DA002C03
:1042C00009DA01210748FFF721FF70BD022128000C
:1042D000FCF72CFAF3E702212000FCF727FAF0E7BD
:1042E00084050020F002002010B5064B1B78064B19
:1042F0001B78E1210123002249020448FFF7D6FF81
:1043000010BDC0468053001084530010004003408D
:1043100003BD10B50400FDF759FDA04710BDD02323
:104320001B061B6D9B07FAD5D0231B06586540BFA3
:104330007047D0231B061B6DDB0701D420BFF8E7B5
:10434000D0231B06986D704770B586B0002300938C
:104350000193013302930392049105900F20FDF71E
:104360007DFB060000210F20FDF794FB002500E0F7
:104370000025AB006A469C58002C0FD02000FFF7A8
:10438000CEFFFFF7D6FF8442F2D10135052DF0D9DB
:1043900031000F20FDF77EFB06B070BDD0231B0659
:1043A0001B6DDB0703D5D0231B069B6DF6E740BFD3
:1043B000E4E7000010B50B00910711D103218A43F7
:1043C0009A1811000C390860100008380360043A8C
:1043D000064B1360064B9A680648FFF7B5FF10BD01
:1043E000054B064A6E210648FDF7ACF91343001051
:1043F00000ED00E011430010205300103C5300106A
:10440000D852001010B5064A064B9A4205D3110047
:1044100080221201FFF7CEFF10BD01214942F7E7CC
:10442000000804200000042010B5830727D003787B
:10443000002B26D00300032102E01A78002A1CD0AA
:1044400001330B42F9D119680F4A104C8A188A437C
:1044500022420FD1043319680B4A8A188A43224238
:1044600008D104331968084A8A188A432242F1D0D5
:1044700000E001331A78002AFBD1181A10BD03009E
:10448000E1E70020FAE7C046FFFEFEFE8080808064
:10449000F8B5C0460000000001B40248844601BCE3
:1044A000604700BFB101002001B40248844601BC4E
:1044B000604700BF4502002001B40248844601BCA9
:1044C000604700BF4502002001B40248844601BC99
:1044D000604700BF5501002001B40248844601BC7A
:0844E000604700BFC10000208D
:1044E8000A0D0A0D0A0D0A0D546573746520526190
:1044F80073706265727279205069205069636F2009
:104508004F5320000A0D436F72653A2025642054EA
:1045180061736B3A2025640072742D3E616C617280
:104528006D5F6964203D3D20696400002F686F6DF0
:10453800652F6576616E64726F2F7069636F2F7077
:1045480069636F2D73646B2F7372632F636F6D6D67
:104558006F6E2F7069636F5F74696D652F74696D15
:10456800652E63006964202626206964203C3D206E
:10457800706F6F6C2D3E686561702D3E6D61785F60
:104588006E6F646573000000256C6C642028686990
:1045980020253032782900006964202626206964A5
:1045A800203C3D20686561702D3E6D61785F6E6FBF
:1045B800646573002F686F6D652F6576616E647230
:1045C8006F2F7069636F2F7069636F2D73646B2F22
:1045D8007372632F636F6D6D6F6E2F7069636F5F9A
:1045E8007574696C2F696E636C7564652F70696387
:1045F8006F2F7574696C2F70686561702E68000084
:10460800706172656E745F69640000006368696C4C
:10461800645F696400000000706172656E745F69B0
:104628006420213D206368696C645F696400000050
:104638002170685F636F6E7461696E735F6E6F641B
:104648006528706F6F6C2D3E686561702C207265EF
:104658007573655F6964290075735F73696E636557
:104668005F626F6F74203C3D20494E5436345F4D75
:10467800415800002F686F6D652F6576616E647212
:104688006F2F7069636F2F7069636F2D73646B2F61
:104698007372632F636F6D6D6F6E2F7069636F5FD9
:1046A800626173652F696E636C7564652F706963E9
:1046B8006F2F74797065732E6800000072656D6FD6
:1046C8007665645F6964203D3D206E6578745F6936
:1046D8006400000063616C6C6261636B0000000041
:1046E800706F6F6C2D3E616C61726D5F696E5F708B
:1046F800726F6772657373203D3D206D616B655FF6
:104708007075626C69635F69642869645F6869676A
:10471800682C206E6578745F6964290069642026B6
:1047280026202170685F636F6E7461696E735F6EB7
:104738006F646528686561702C2069642900000031
:104748007570646174655F75735F73696E63655FC7
:10475800626F6F740000000070685F6765745F6E59
:104768006F64650070685F6164645F6368696C6446
:104778005F6E6F646500000070685F696E736572D4
:10478800745F6E6F6465000070685F667265655F70
:104798006E6F6465000000006765745F656E747213
:1047A800790000006765745F656E7472795F69648B
:1047B8005F686967680000006164645F616C6172CA
:1047C8006D5F756E6465725F6C6F636B00000000EF
:1047D800616C61726D5F706F6F6C5F616C61726D3F
:1047E8005F63616C6C6261636B00000048617264B6
:1047F8007761726520616C61726D20256420616C3F
:10480800726561647920636C61696D65640000009C
:1048180074696D65725F68772D3E696E74732026C2
:10482800203175203C3C20616C61726D5F6E756D46
:10483800000000002F686F6D652F6576616E6472E9
:104848006F2F7069636F2F7069636F2D73646B2F9F
:104858007372632F7270325F636F6D6D6F6E2F6846
:10486800617264776172655F74696D65722F7469CE
:104878006D65722E6300000068617264776172650D
:104888005F616C61726D5F7365745F746172676597
:10489800740000006D74782D3E636F72652E73701E
:1048A800696E5F6C6F636B002F686F6D652F65763F
:1048B800616E64726F2F7069636F2F7069636F2DFB
:1048C80073646B2F7372632F636F6D6D6F6E2F70D0
:1048D80069636F5F73796E632F6D757465782E6386
:1048E800000000006D74782D3E72656375727369FF
:1048F8006F6E5F7374617465203D3D204D41585F54
:10490800524543555253494F4E5F53544154450005
:104918006D74782D3E6F776E657220213D204C4F67
:10492800434B5F494E56414C49445F4F574E4552A1
:104938005F4944006D74782D3E72656375727369C2
:104948006F6E5F7374617465000000006D75746547
:10495800785F656E7465725F626C6F636B696E67B2
:10496800000000006D757465785F657869740000F3
:10497800726F6F745F6964002F686F6D652F65765D
:10498800616E64726F2F7069636F2F7069636F2D2A
:1049980073646B2F7372632F636F6D6D6F6E2F70FF
:1049A80069636F5F7574696C2F70686561702E63D9
:1049B800000000002170685F6765745F6E6F646552
:1049C80028686561702C20726F6F745F6964292D87
:1049D8003E7369626C696E67000000002170685F51
:1049E8006765745F6E6F646528686561702C2072F6
:1049F8006F6F745F6964292D3E706172656E740013
:104A0800666F756E640000006E65775F7375625F30
:104A18007472656520213D20686561702D3E726F56
:104A28006F745F696400000070685F6765745F6E2B
:104A38006F64650070685F6164645F6368696C6473
:104A48005F6E6F646500000070685F72656D6F76F9
:104A5800655F616E795F68656164000070685F72A8
:104A6800656D6F76655F616E645F667265655F6EC2
:104A78006F6465002C2066756E6374696F6E3A20EA
:104A880000000000617373657274696F6E202225DF
:104A98007322206661696C65643A2066696C6520DA
:104AA800222573222C206C696E65202564257325C8
:104AB800730A00000A2A2A2A2050414E4943202A14
:104AC8002A2A0A000A0000007372635F6672657121
:104AD800203E3D2066726571000000002F686F6DF2
:104AE800652F6576616E64726F2F7069636F2F70C2
:104AF80069636F2D73646B2F7372632F7270325FEB
:104B0800636F6D6D6F6E2F68617264776172655F38
:104B1800636C6F636B732F636C6F636B732E6300CF
:104B2800636C6F636B5F636F6E6669677572650050
:104B3800212864656C7461203E3E2031317529005E
:104B48002F686F6D652F6576616E64726F2F70695F
:104B5800636F2F7069636F2D73646B2F7372632F8C
:104B68007270325F636F6D6D6F6E2F6861726477FC
:104B78006172655F6972712F6972712E630000003E
:104B880063757272656E74203D3D205F5F756E6857
:104B9800616E646C65645F757365725F69727120BC
:104BA8007C7C2063757272656E74203D3D2068615F
:104BB8006E646C65720000006972715F68616E6492
:104BC80065725F636861696E5F667265655F736C65
:104BD8006F745F68656164203E3D2030000000000E
:104BE800767461626C655F68616E646C6572203DA5
:104BF8003D205F5F756E68616E646C65645F757398
:104C080065725F6972710000212828282875696E0D
:104C1800747074725F7429767461626C655F686120
:104C28006E646C657229202D20282875696E747051
:104C380074725F74296972715F68616E646C657201
:104C48005F636861696E5F736C6F747329202D20D0
:104C580031292573697A656F662873747275637470
:104C6800206972715F68616E646C65725F63686108
:104C7800696E5F736C6F74292900000030783163A6
:104C8800203D3D20282A696E7374293E3E313175D6
:104C98000000000021657863657074696F6E207C80
:104CA8007C20657863657074696F6E203D3D206E69
:104CB800756D202B2031360066616C73650000002D
:104CC80069735F7368617265645F6972715F72614D
:104CD800775F68616E646C657228736C6F745F6867
:104CE800616E646C65722900657863657074696FBC
:104CF8006E0000006972715F7365745F6578636C3C
:104D080075736976655F68616E646C657200000032
:104D18006D616B655F6272616E636800696E736571
:104D280072745F6272616E63685F616E645F6C6902
:104D38006E6B00007265736F6C76655F6272616E90
:104D4800636800006972715F72656D6F76655F6890
:104D5800616E646C657200006972715F6164645FA2
:104D68007461696C5F746F5F667265655F6C6973A7
:104D7800740000006662646976203E3D203136206A
:104D88002626206662646976203C3D203332300056
:104D98002F686F6D652F6576616E64726F2F70690D
:104DA800636F2F7069636F2D73646B2F7372632F3A
:104DB8007270325F636F6D6D6F6E2F6861726477AA
:104DC8006172655F706C6C2F706C6C2E63000000F4
:104DD80028706F73745F64697631203E3D203120FE
:104DE800262620706F73745F64697631203C3D20FD
:104DF80037292026262028706F73745F64697632FD
:104E0800203E3D203120262620706F73745F646930
:104E18007632203C3D20372900000000706F737403
:104E28005F64697632203C3D20706F73745F6469FB
:104E3800763100007265665F6D687A203C3D2028F7
:104E480076636F5F66726571202F20313629000006
:104E5800706C6C5F696E697400000000666E6900B2
:104E6800666E692B000000006E616E00666E692D2B
:104E780000000000762B00109C2B0010B42B0010B3
:104E88009C2B0010562B00109C2B00109C2B001004
:104E98009C2B00109C2B00109C2B00109C2B0010AE
:104EA8009C2B0010922B00109C2B00109C2B0010A8
:104EB8009C2B00109C2B00109C2B0010C02B00106A
:104EC800D42A00106E2A00106E2A0010DE2A001064
:104ED8006E2A00106E2A00106E2A00106E2A00102A
:104EE8006E2A00106E2A00106E2A0010CA2A0010BE
:104EF8006E2A0010C02A00106E2A00106E2A0010B8
:104F0800A22A0010F02F0010063000100630001002
:104F18000630001006300010063000100630001071
:104F28000630001006300010063000100630001061
:104F38000630001006300010063000100630001051
:104F48000630001006300010063000100630001041
:104F58000630001006300010063000100630001031
:104F68000630001006300010063000100630001021
:104F78000630001006300010063000100630001011
:104F880006300010182E0010D82D0010182E001012
:104F980006300010063000100630001006300010F1
:104FA80006300010063000100630001006300010E1
:104FB80006300010063000100630001006300010D1
:104FC80006300010063000100630001006300010C1
:104FD800CC2B0010063000100630001006300010F0
:104FE80006300010063000100630001006300010A1
:104FF8000630001006300010CC2B0010682E001070
:10500800CC2B0010182E0010D82D0010182E0010D0
:1050180006300010CC2B00100630001006300010AF
:10502800063000100630001006300010CC2B00109F
:10503800BA2F00100630001006300010E02E0010C5
:1050480006300010CC2B001006300010063000107F
:10505800CC2B001000000000000000000000F03F12
:10506800000000000000244000000000000059403B
:105078000000000000408F40000000000088C3408E
:1050880000000000006AF8400000000080842E4103
:1050980000000000D01263410000000084D797414F
:1050A8000000000065CDCD412A282875696E743846
:1050B8005F74202A29282828766F6964202A297293
:1050C8006F6D5F646174615F6C6F6F6B7570287270
:1050D8006F6D5F7461626C655F636F6465282753E9
:1050E800272C202746272929292D322929202A201B
:1050F80034203E3D2053465F5441424C455F563272
:105108005F53495A450000002F686F6D652F65761B
:10511800616E64726F2F7069636F2F7069636F2D92
:1051280073646B2F7372632F7270325F636F6D6D70
:105138006F6E2F7069636F5F646F75626C652F6443
:105148006F75626C655F696E69745F726F6D2E63EF
:10515800000000005F5F61656162695F646F75628E
:105168006C655F696E6974002A282875696E7438E1
:105178005F74202A2928726F6D5F7461626C652DD7
:10518800322929202A2034203E3D2053465F5441AD
:10519800424C455F56325F53495A45002F686F6D40
:1051A800652F6576616E64726F2F7069636F2F70FB
:1051B80069636F2D73646B2F7372632F7270325F24
:1051C800636F6D6D6F6E2F7069636F5F666C6F6173
:1051D800742F666C6F61745F696E69745F726F6D4E
:1051E8002E6300005F5F61656162695F666C6F6175
:1051F800745F696E69740000446562756700000039
:10520800626F6F74325F773235713038300000006A
:10521800302E3100312E322E300000007069636F5D
:1052280000000000526173706265727279506950B3
:1052380069636F4F53000000417567203238203290
:105248003032310006005250BBFF3CB624520010E9
:10525800060052503ABCA9111852001006005250CC
:10526800E182887F0852001006005250D3F0754240
:10527800005200100D0A0000554152542073746406
:10528800696E000055415254207374646F75740040
:105298005541525420737464696E202F20737464CE
:1052A8006F7574000600525053B4F4A19852001060
:1052B8000800525092000000216C6F636B6F757488
:1052C8005F696E5F70726F677265737300000000CC
:1052D8002F686F6D652F6576616E64726F2F7069C8
:1052E800636F2F7069636F2D73646B2F7372632FF5
:1052F8007270325F636F6D6D6F6E2F7069636F5F71
:105308006D756C7469636F72652F6D756C74696304
:105318006F72652E630000002128737461636B5FF0
:1053280073697A655F6279746573202620337529FD
:10533800000000006D756C7469636F72655F6C6165
:10534800756E63685F636F7265315F776974685FF4
:08535800737461636B00000037
:10536000B4020010A80200109C0200104C52001061
:105370009002001058520010645200107052001039
:08538000AC520010B8520010FD
:1053880010B50368002B1CD11E4B1F4A1A211F4859
:1053980000F0BAF802714379002B2AD0FF2B02D112
:1053A800013B437125E01A4B174A2121174800F0A9
:1053B800ABF80368BFF35F8F00221A6081F310888F
:1053C80020BF0268EFF3108172B61368002BFCD07F
:1053D800BFF35F8FD0231B0600229A560423C356BF
:1053E8005C1CD7D09342E4D14379012BE1D9013B2E
:1053F80043710368BFF35F8F00221A6081F310883E
:1054080010BDC0469C48001054490010B048001018
:10541800EC48001030B503000068EFF3108472B652
:105428000268002AFCD0BFF35F8FD022120600204A
:10543800105604229A56551C0DD082420ED00029CF
:1054480013D00A6000201B68BFF35F8F00221A6028
:1054580084F3108830BD18710120F4E758790128C9
:10546800EDD9013858710120EDE70020EBE7000085
:1054780010B50268EFF3108172B61368002BFCD0E8
:10548800BFF35F8F0423C35601330DD04379002B3C
:1054980010D1FF3303710368BFF35F8F00221A60D6
:1054A80081F3108840BF10BD124B134A6321134883
:1054B80000F02AF80133DBB24371002B09D0FF2B2F
:1054C8000DD00368BFF35F8F00221A6081F3108844
:1054D800E9E70B4B084A6921084800F015F8037101
:1054E8000368BFF35F8F00221A6081F3108840BF02
:1054F800D9E7C046184900106C490010B0480010A0
:105508003C4900107047C04601B40248844601BCBB
:10551800604700BF4517001010000000740200200B
:1055280000000000300300201805002000000000E3
:105538000000000028050020000000000000000016
:105548001000000000000000000001000000000042
:105558000000000000000200000000000000000041
:105568000000030000000000000000000000FF0031
:105578000000000000B5486801318E4600477046BB
:1055880009380149884700BDDD1C001000000000F3
:10559800503300004C3300005433000052330000F5
:1055A8004D5300004D4300005334000043340000C5
:1055B800E541001000000000594200100000000002
:1055C80000010000000000000000000000000000D2
:1055D800000000003D3F00106D30001079370010CA
:0C55E8000D3E001039030010DD0600101D
:04000005100001E9FD
:00000001FF
